:100000000C942A000C9478000C9478000C947800DE
:100010000C9478000C9478000C9478000C94780080
:100020000C9478000C9478000C9478000C94780070
:100030000C9478000C9478000C9478000C94780060
:100040000C9478000C9478000C9478000C94780050
:100050000C94780011241FBECFE5D8E0DEBFCDBFE1
:0C0060000E9436000C945400F894FFCF6E
:10006C008FEF87BB8ABB82E081BB0E9469000E9434
:10007C0048000E945F000E9472000E945F000E9474
:04008C007200FFCF30
:1000900014BA80ED82B984E486BF86B7806886BFD3
:0800A00006B607FEFDCF08952E
:1000A800EC010E947D000E947C00CE010E947E002F
:0600B800CE010E947A0057
:1000BE0084E486BF86B7806886BF06B607FEFDCF8E
:0400CE0083B108955D
:1000D2001BB888E18AB986E880BD83E389B910BC80
:0200E20008957F
:0C00E4005D9BFECF90E29BB98CB90895A3
:0400F0000C9400006C
:0400F4000E94340032
:0200F800089569
:0200FA00089567
:0200FC00089565
:00000001FF
