:0400000081EF03F099
:100600000000000E956E95CF93FF180E946E000EAD
:10061000026E000E036E000E046E000E056E010EDB
:100620000226000E03220422052205BE25EF03F058
:1006300005500DE1A00E025C860E0358010E045811
:10064000D8A025EF03F027EF03F00FEF03F078ECCD
:1006500003F06FEC03F0000E066E000E076E000E46
:10066000086E000E096E010E0626000E07220822F3
:10067000092209BE49EF03F009500DE1A00E065C06
:10068000860E0758010E0858D8A049EF03F04BEF2B
:1006900003F033EF03F0D00E5AEC03F0530E5AEC94
:1006A00003F04D0E5AEC03F066EC03F056EF03F046
:1006B00000EF00F0016E9E9601C0C9FF9EA663EF99
:1006C00003F065EF03F05EEF03F01200C584C5B4DC
:1006D0006CEF03F06EEF03F067EF03F01200C580DC
:1006E000C5B075EF03F077EF03F070EF03F0120081
:1006F000000EC76E280EC66E000EC56E310EC86E97
:080700001200000101EF03F0FB
:00000001FF
