:0400000075EF03F0A5
:100600000000000E956E180E946E240EAC6E900EC7
:10061000AB6E810EAF6E6CEC03F063EC03F0F10E89
:100620004EEC03F0000E26EC03F0026E025042EC9A
:1006300003F0010E26EC03F0026E025042EC03F0D0
:100640005AEC03F022EF03F000EF00F0016EC586D4
:10065000C5B62DEF03F02FEF03F028EF03F001B044
:1006600034EF03F037EF03F0C58A38EF03F0C59A93
:10067000C588C5B83EEF03F040EF03F039EF03F053
:10068000C9501200016E9EA848EF03F04AEF03F034
:1006900043EF03F001C0ADFF9E981200016E9E96DD
:1006A00001C0C9FF9EA657EF03F059EF03F052EFC8
:1006B00003F01200C584C5B460EF03F062EF03F0ED
:1006C0005BEF03F01200C580C5B069EF03F06BEF7C
:1006D00003F064EF03F01200000EC76E280EC66E22
:1006E000000EC56E310EC86E1200000101EF03F05E
:00000001FF
