:100000000C942A000C9470000C9470000C947000F6
:100010000C9470000C9470000C9470000C947000A0
:100020000C9470000C9470000C9470000C94700090
:100030000C9470000C9470000C9470000C94700080
:100040000C9470000C9470000C9470000C94700070
:100050000C94700011241FBECFE5D8E0DEBFCDBFE9
:0C0060000E9436000C945200F894FFCF70
:10006C008FEF87BB8ABB82E081BB0E9467000E9436
:10007C00460081E40E945D0082E40E945D00FFCF97
:10008C0014BA80EF82B984E486BF86B7806886BFD5
:08009C0006B607FEFDCF089532
:1000A400EC010E9475000E947400CE010E9476004B
:0600B400CE010E94720063
:1000BA0083B984E486BF86B7806886BF06B607FE22
:0400CA00FDCF0895C9
:1000CE001BB888E18AB986E880BD83E389B910BC84
:0200DE00089583
:0400E0000C9400007C
:0400E4000E94340042
:0200E800089579
:0200EA00089577
:0200EC00089575
:00000001FF
